:020000041000EA
:10000000002008205D0100101B0100101D010010E0
:100010001101001011010010110100101101001058
:100020001901001019010010190100101F01001022
:10003000110100101901001021010010230100100E
:100040001101001011010010110100101101001028
:100050001101001011010010110100101101001018
:100060001101001011010010110100101101001008
:1000700011010010110100101101001011010010F8
:1000800011010010110100101101001011010010E8
:1000900011010010110100101101001011010010D8
:1000A00011010010110100101101001011010010C8
:1000B00011010010110100101101001011010010B8
:1000C00011010010110100101101001011010010A8
:1000D0001101001011010010110100101101001098
:1000E0001101001011010010110100101101001088
:1000F0001101001011010010110100101101001078
:100100001101001011010010110100101101001067
:10011000EFF30580103800BE00BE00BE00BE00BE7A
:1001200000BE00BEF2EB8871A41C0010C41C0010BD
:10013000A001001090A31AE7D3DEFFFF42012110B7
:10014000FF010000581D0000793512AB4FF0000090
:100150001E49086006C881F3088810474FF05040D8
:10016000006810B14FF00000F2E70DA40ECC00299A
:1001700002D000F012F8F9E71549164A002000E015
:1001800001C19142FCD11449884714498847144958
:10019000884700BEFDE701C901C29A42FBD3704700
:1001A000C41C001010010020DC020020901E001072
:1001B0000000082000000820901E001000100820F9
:1001C00000100820000000007047000008ED00E06B
:1001D000DC020020F80400208D1200105D030010E6
:1001E00085120010F8B500BF064B0749C91A8910DF
:1001F00048BF0131491003D0044B0BB101481847E7
:10020000704700BFDC020020DC020020000000007C
:1002100008B5054B1BB105490548AFF30080BDE8A3
:100220000840FFF7E1BF00BF00000000B804002055
:10023000B4170010F0B5434A83B01378042B7AD872
:10024000DFE803F0035B3B03230001200D234FF0A5
:100250000001107041EC403041EC40303A4C0DF15F
:10026000060504F5806654F8043F01222946374804
:10027000ADF8063001F074FAB442F4D10D234FF01A
:10028000010242EC403003B0F0BD02200D234FF0DC
:100290000001107041EC40302D4C0DF10605A4F525
:1002A000806654F8043D012229462848ADF80630FE
:1002B00001F056FAA642F4D1E0E703200D234FF0F7
:1002C0000001107041EC4030224E0DF10605A6F100
:1002D0003C07002456F82430012229461B481034DC
:1002E000ADF8063001F03CFAB4F5807FF2D1B742A8
:1002F000A6F10403C2D01E46EBE704200D234FF005
:100300000001107041EC4030134E0DF1060506F16E
:10031000400706F58064D4F8C033012229460B4813
:10032000403CADF8063001F01BFAB442F3D104367C
:10033000BE42EED1A2E70D234FF0000242EC403066
:100340009CE700BFF4040020B017001000800840B4
:10035000B41B0010F0170010B4130010022500B5F4
:100360001E4C8BB020461E4901F0D6F81D4B62682A
:100370005D602368DFF878E0DFF878C083F00F0372
:100380002A4003F0CF03CEF800300121CCF804203E
:100390000B2000F031F801210A2000F02DF80D208B
:1003A00000F048F80D234FF0010242EC443042ECDB
:1003B0004030002401210C2000F01EF800F06CFBFE
:1003C000094904AD4FF0FF33084A0091CDE90145DA
:1003D00000F074FC01F03EF8FEE700BF008008402A
:1003E000A086010000B0084035020010C0BDF0FF3B
:1003F0000090084000A0084010B44FF480740C4BEB
:1004000053F8202003EB8003C00082F0400200F18B
:10041000804003F5805C02F0C00200F5203003F557
:100420004053CCF8002041601C605DF8044B7047DD
:100430000480034030B44FF0000343EC440043EC2D
:10044000400005254FF480740B4BC20053F8201078
:1004500003EB800081F0400102F1804303F520337B
:1004600001F0C00200F5805100F540500A605D6067
:10047000046030BC704700BF048003400FB400B577
:1004800083B0049C074801F029F83CB105A9204637
:10049000019100F0DDFE044801F020F8012000F099
:1004A000EFFE00BFB41B0010C41B001070B58646E1
:1004B000EFF3108572B6124CD4E8CF6F0120002EF6
:1004C000FAD1C4E8460F002EF6D1BFF35F8F4FF08C
:1004D000010CC80801F007030CFA03F31EF800C072
:1004E0001CEA030608D14CEA030C0EF800C0C4E86D
:1004F0008F6F85F3108870BD1046FFF7BFFF00BFF8
:100500006B040020044A1078431CDBB2182B28BF70
:1005100010231370704700BFB80200204FF0E02294
:10052000936843F000539360704700BF0021044B71
:1005300003F12002C3E88F1F01339342FAD17047C1
:10054000600400204FF0E0234FF08032C3F8002415
:10055000C3F80424C3F80824C3F80C24C3F81024F7
:10056000C3F81424C3F81824C3F81C24C3F82024A7
:10057000C3F82424C3F82824C3F82C24C3F8302457
:1005800062B67047012300F01F029340400941B159
:10059000800000F1604000F56140C0F880310360E8
:1005A0007047024A203042F82030704700E100E0F6
:1005B000F8B50D46EFF3108772B6124ED6E8CF2F7E
:1005C0000123002AFAD1C6E8423F002AF6D1BFF340
:1005D0005F8F0D4B00F110049B680C4A53F82430D8
:1005E000934203D0994201D000F01AFD064B9B685C
:1005F00043F82450BFF35F8F0023C6E88F3F87F393
:100600001088F8BD6904002000ED00E01101001021
:10061000014B0B44036070476004002070B5104C20
:10062000104DAC420ED2FF26236863B1FFF76AFF7C
:1006300001462046FFF7ECFFA680BFF35F8F08342A
:10064000AC42F1D370BDFFF75DFF01462046FFF7D6
:10065000DFFF2671BFF35F8F0834AC42E4D370BD77
:10066000D4020020DC0200200D4B1A68EFF3108149
:1006700072B6D2E8CFCF0120BCF1000FF9D1C2E8A9
:100680004C0FBCF1000FF4D1BFF35F8F00221B6849
:10069000C3E88F2F81F3108840BF002000217047EE
:1006A000F0040020000000002DE9F04F2DED028B3A
:1006B00085B0EFF30583DBB2103B9A0818BF012227
:1006C0004FF0010103F0030B18BFAF4DAF4B08BF54
:1006D000AF4D0BEB820253F8226001FA0BF205F5E5
:1006E00041539FEDA78B01925A602FE0B3881C0401
:1006F00040F19380B379002B40F0DD80B6F90820FB
:10070000002AC0F21E81736902EB420203EBC203AE
:10071000D3E90247B7F1FF3F08BFB4F1FF3F0ED066
:1007200005EB8B01AB6A0A69D21AE31A934205D32F
:1007300001232A6A03FA0BF3134200D10C61284605
:1007400000F05EFBA042B941C0F2FB80B6F9083070
:10075000019A002B0093EA63C8DBD6F8148003EB00
:100760004309284608EBC907D7E9024A00F048FBCD
:10077000A04271EB0A01B9DBBAF1000FC0F2C380ED
:10078000D7E90431834A934200F0ED807A88B6F9C4
:10079000080092B242EA0040984702460B4652EAED
:1007A000030100F0B080002B80F2D180B4EB020E88
:1007B0006AEB030A38F93930C7E902EA002B95DB06
:1007C000716903EB430201EBC202D2E90270BE453C
:1007D0007AEB000C4FEA430288DBB4462CF8083F62
:1007E00006E003EB430001EBC0005A00D0E90270C1
:1007F000BE451A447AEB000001EBC20404DB31F978
:100800003230A446002BECDA28F83930009BACF8E3
:100810000030B3881C043FF56DAF3369EFF31082ED
:1008200072B6D3E8CF0F01210028FAD1C3E8401FE8
:100830000028F6D1BFF35F8F4FF6FF74B088002316
:10084000316900B2B480C1E88F3F82F310889842CA
:10085000FFF650AF0746A946746906F1080807EB92
:10086000470E04EBCE03D3E90250B6F90830C44674
:10087000002B13DBB246009704E034F9363094467F
:10088000002B09DB03EB430604EBC602D2E902713D
:10089000BD4270EB0101F0DA5646009FACF80070E3
:1008A00034F93E7024F83E30002FD8DAB3794D4643
:1008B000002B3FF423AF0023B371B6F9083006F1E3
:1008C0000808581C3DD01A46776903E08046591C39
:1008D0003FF416AF03EB430107EBC100B0F802C0D1
:1008E0001C461CF4004F9E4637F93130EED094423E
:1008F00080ED028B05D0A8F80030328927F831202E
:1009000034817246E3E738F8393033813369EFF3E5
:10091000108272B6D3E8CF0F01210028FAD1C3E8C4
:10092000401F0028F6D1BFF35F8F7388316928F824
:100930003930009B73800023C1E88F3F82F3108819
:10094000D4E640BF05B0BDEC028BBDE8F08F284671
:10095000CDE9022300F054FA029A039B10EB020E39
:1009600043EB010A26E708460B69029198470028E5
:10097000C9D00299D1E9002311E700BFAFF300808D
:10098000FFFFFFFFFFFFFFFF00800B40D0040020B0
:1009900000000B40A90600102DE9F84F364C2569E0
:1009A0002DB1BDE8F84F0A213448FFF731BEDFF81A
:1009B000E4800321404600F011FA0326C4F80C80BD
:1009C000FFF7A0FD4FF0504C2D4B267003442361E0
:1009D000DCF800300F216370636961801D834FF084
:1009E0000405A3F878504FF00505A3F890504FF098
:1009F0000605A3F8A8504FF007050E214FF6FF7229
:100A000008274FF00A0EA3F8C0504FF001094FF02D
:100A10000C0C4FF0020B4FF0090A0D204FF00B05A4
:100A2000A3F868111749A280A3F808E1A160A3F810
:100A300048B0A3F8F0A0A3F82051A3F838C1A3F858
:100A40005001A3F83090A3F86060A3F8D8701A8022
:100A50000D4B3046C8F820700C49DC60FFF7A8FD4C
:100A600049463046FFF78EFD094B0A211F640348B3
:100A7000BDE8F84FFFF7CCBDBC020020F004002019
:100A800060040020FFFF1000D0040020A906001021
:100A900000200B4000000B4000487047BC020020C3
:100AA0000146F0B50069EFF3108772B6D0E8CF5F6A
:100AB0000124002DFAD1C0E8454F002DF6D1BFF337
:100AC0005F8FB1F902E04C690EEB4E0CBEF1000FE6
:100AD0004FEACC05086904EBCC0C3CDB665B4E802E
:100AE0000026C0E88F6F87F31088BCF80200CCE9BD
:100AF00002230130C0F30E00012838BF0120059BFE
:100B0000ACF80200CCF81030069B40EA0E40CCF85E
:100B100014300B69EFF3108272B6D3E8CFCF012700
:100B2000BCF1000FF9D1C3E84C7FBCF1000FF4D148
:100B3000BFF35F8F8B886353A1F804E00B69C3E8B0
:100B40008F6F82F310880122CB68097803F5015377
:100B50008A405A60F0BD0023C0E88F3F87F31088B9
:100B60004FF0FF30F0BD00BF03464089B0EB214F8E
:100B700037DD58690A1402EB420210B500EBC200DF
:100B80001C69EFF3108C72B6D4E8CFEF0122BEF1EE
:100B9000000FF9D1C4E84E2FBEF1000FF4D1BFF31E
:100BA0005F8F428889B292B28A4207D000221B69C5
:100BB000C3E88F2F8CF31088002010BD42F4004250
:100BC00042800121002218699971C0E88F2F8CF3AF
:100BD00010881C78DA68084602F50153A140596074
:100BE00010BD0020704700BF2DE9F04306460D46BA
:100BF00083B0EFF30584E4B23CB12D4B5A6AAA42AC
:100C00001CD2002003B0BDE8F0832A4FD7F80C9027
:100C100097F80080484600F0F3F808F1040859F806
:100C200028301B1A301A65EB0101984271F100015E
:100C300010DB20BF1E4B5A6AAA42E2D314BF012424
:100C400000249B6AB34234BF204644F0010003B045
:100C5000BDE8F08300F0DCF8864265EB0101002975
:100C600014DB154B3846CDE9003432462B46FFF7EE
:100C700017FF011E0ADD0E4B5A6AAA4216D39B6A61
:100C8000B34211D30B48FFF76FFFB6E7084B5C6A1E
:100C9000AC42B6D3641B18BF01249B6AB34234BF75
:100CA000204644F00100ADE7AA42EBD120BFE9E7BE
:100CB00000000B40BC020020690600102DE9F04145
:100CC0000446DDE9071552EA030072D0002B1646F0
:100CD0001F4673DB0698C5E900232861AC60696193
:100CE00000F096F84FF0FF326FF00043801947EBA9
:100CF0000107824273EB07013CBF1F461046236980
:100D0000EFF3108272B6D3E8CF6F0121002EFAD133
:100D1000C3E8461F002EF6D1BFF35F8FB4F902106F
:100D2000666901EB410300294FEAC30CD4F8108037
:100D300006EBC30346DB36F80CE0A4F802E04FF004
:100D4000000EC8E88FEF82F310885A88C3E90207C3
:100D50000132C2F30E02012A38BF01221E485A8016
:100D60005D61186142EA01422369EFF3108072B6B7
:100D7000D3E8CF8F0127B8F1000FF9D1C3E8487F3E
:100D8000B8F1000FF4D1BFF35F8FA38826F80C30C1
:100D9000A1802369C3E88FEF80F3108801202178B8
:100DA000E36800FA01F103F501535960EA60BDE818
:100DB000F0810126002732463B468BE7564263EB23
:100DC000430787E70020C8E88F0F82F310884FF0B1
:100DD000FF32EA60BDE8F081A906001010B4054BAF
:100DE000054C064AA04214BF1846581C5DF8044B37
:100DF000FFF75CBB8004002000800B40C81B001084
:100E00000346416A0A46986A596A8A42FAD170478B
:100E1000034B596A0A46986A596A9142FAD1704757
:100E200000000B4000EB400C4FEA8C0C0CF1804CA6
:100E30000CF5803CF0B51646DCF80420051FB2F531
:100E4000803F38BF4FF48032EDB238BFCCF8042079
:100E5000012D2AD94FF40067254C0CF5405217603C
:100E600054F82020B2B9DCF80020012D82EA4612A5
:100E700002F0E0020CF5805632602AD94FF400618E
:100E800044F820304FF480330CF500521160CCF858
:100E90000430F0BD6769B7FBF2FE0EF1010E0EEBF8
:100EA0004E0EBEF1030EFCD2DDE70129D2D10324A0
:100EB0000CF540521460DCF80820D207FBD5DCF8B2
:100EC00000200B4C82EA461202F0E0020CF580563C
:100ED00032600122DCF800504D4005F0030535601A
:100EE00002FA01F1DCF808200A42FBD0C6E700BF95
:100EF00084040020014B53F8200070478404002034
:100F000070B4039D04682D0345EA03451B4B002C78
:100F1000B3FBF1F3B2FBF3F61FDB194A194B904216
:100F200014BF4FF480424FF40042174C1A6003F58F
:100F300080531A60A36832EA0303FBD1212200F533
:100F400040530433016086601A600268002AFCDAAC
:100F50000822C5601A6070BC7047036803F03F0345
:100F60008B42DAD18368C3F30B03B342D5D1C36894
:100F700003F4EE23AB42D0D1EDE700BF001BB70076
:100F8000008005400020024000000240012300EBE9
:100F90004000800000F1804000F584104160036053
:100FA000704700BF0023DB8A002242E800F25202B1
:100FB00001D4102118470421184700BF034AD2F872
:100FC0002838002BFBD0BFF35F8F704700000E4026
:100FD0000021044B044ABFF35F8F43F8041B934284
:100FE000F9D170470C080E402C080E4010B44FF495
:100FF0008D704FF42A64064A064B07491460D0608E
:1010000019605368002BFCDA5DF8044B704700BF91
:101010000080044000A0044000B0FA00704700BF08
:1010200008B50148FFF72AFAEC1B001038B5054C4B
:10103000054DAC4204D254F8043B9847AC42FAD375
:1010400038BD00BF70170010B017001010B407486B
:10105000074C084B084A094904601A608B6832EA59
:101060000303FBD15DF8044B704700BF0020024032
:101070007F3BEFEF00300240F6FFF3030000024039
:10108000044BDB6CB3F5004F03D14FF48022024BCD
:10109000DA64704700001150002011504FF0E02238
:1010A000044BD2F8881D0B43C2F8883D10EE300483
:1010B000704700BF030330006FF06041044B054AE6
:1010C00019609368DB4333F06043FAD1704700BF87
:1010D000003002400000024010B545F25320FFF7F7
:1010E00061FFBDE8104003460420184710B545F2E3
:1010F0005320FFF757FFBDE8104003460120184773
:10110000FFF714BA1449154B70B55C1AA610442E9B
:10111000324628BF4422124D9200284600F076FA4B
:10112000B4F5867F13D80F4AC6F1440012D02B19AC
:10113000410803EBC101C3E9002208338B42FAD115
:10114000C30704D520F00100304445F82020064BA9
:101150009D6070BD4320F8E70000001010010010F2
:10116000000000201101001000ED00E0002370B528
:101170002B4C82B0C4F88430FFF738FF0122294B92
:10118000DA63636C012BFCD10321264A244B1163E3
:101190009C6B012CFCD10226052521460523224A01
:1011A00022480096FFF7ACFE21462B46204A2148F4
:1011B0000095FFF7A5FE0022042031461E4BFFF7E5
:1011C00031FE2146284600221C4BFFF72BFE002251
:1011D000082011461A4BFFF725FE00220920114670
:1011E000174BFFF71FFE002206201146134BFFF797
:1011F00019FE0022114B07201146FFF713FE0420B1
:10120000FFF778FE00240F4BA3FB0035AD0CE0B2D6
:1012100029460134FFF7BAFE062CF8D102B070BDA2
:101220000000014000300140002F685900000540D7
:10123000008C864700800540001BB70080D1F00875
:10124000006CDC0283DE1B4300B9704700F004B978
:1012500010B5094B84B01C684CB1034600914FF0A7
:10126000FF3203A90548A047012004B010BD00F0DB
:1012700035F9204604B010BDB40400204912001016
:1012800000BEFDE708B5FFF7FBFF00BF38B5064C11
:10129000064DFFF7CBFEAC4204D254F8043B98470E
:1012A000AC42FAD338BD00BFB0170010B41700101D
:1012B00003680846114618472DE9F0411546427D5E
:1012C00007468846002A46D0002D1DDD0B780A2BE4
:1012D00023D0012D4FF0000C18D04646012416F8FB
:1012E000012F21460A2A04F1010422D0A542F6D199
:1012F00065450BDC08EB050313F8013CA3F10D0376
:10130000B3FA83F35B093B75BDE8F0813B68A5EB5D
:101310000C0108EB0C009847ECE7037D002BD8D1BB
:10132000036802210F489847012DE3D04FF0010CCC
:10133000D3E716F8013C0D2BD8D08C4508EB0C00F8
:10134000A1EB0C0101DA3B689847022105483B6894
:101350009847A446CAE7294640463B68BDE8F041A5
:10136000184700BF981C00102DE9F04782B00D46C9
:1013700091461C460646FFF74BFD4FF0FF3C6FF0D1
:1013800000472E4A821841F10003944577EB030190
:101390003CBF62463B462A4800F0E6F96B1C80469B
:1013A00040D00CB3274F284B1C68B4B1B9F1000FE3
:1013B0001CD1DFF89C9001E0246974B12368002BF4
:1013C000FAD0D9F800300BB19C42F5D120462A461C
:1013D0003146B8472469002CF0D1B8F1000F26D16E
:1013E000284602B0BDE8F087184FDCE74FF00A0A44
:1013F000DFF85C9002E02469002CEED02368002B1B
:10140000F9D0D9F800300BB1A342F4D12A463146C5
:101410002046B847012220460DF107018DF807A0AC
:10142000B847E8E7304600F067F90546B9E70448F1
:1014300000F092F9284602B0BDE8F08740420F0064
:10144000D4020020B9120010AC040020B112001028
:10145000B004002000207047F0B583B006468DF838
:101460000700FFF7D5FC4FF0FF356FF00044174A37
:10147000821841F10003954274EB03013CBF2346FF
:101480002A46134800F070F9124B07461C689CB1BD
:10149000114D01E024697CB12368002BFAD02B6840
:1014A0000BB19C42F6D1204601220DF10701FFF756
:1014B00003FF2469002CEFD117B9304603B0F0BD0B
:1014C000034800F049F9304603B0F0BD40420F0038
:1014D000D4020020AC040020B004002038B504463B
:1014E00000F00AF9012305461A4620462946FFF76F
:1014F0003BFF084B1C682CB163682BB198472469EB
:10150000002CF9D1284638BD2469002CF4D1284696
:1015100038BD00BFAC040020384B2DE9F04798429D
:1015200014BF4FF400234FF4802307460E46344D7A
:10153000344C354A2B602360956833EA0505FBD1AE
:101540000620FFF7D7FC39464FF0020A51F804EFA6
:101550004FEAD6594FEA462C01F5405863464A46B1
:1015600054460EEA0A0EC8F800A008E013EB0C037C
:1015700004F1020442EB0902B4F5807F03D09842E3
:1015800075EB020AF2D24FF48073C4EB042201E03F
:10159000012B30D0B0FBF2FC66459946A2EB040269
:1015A00003F1FF33F4D209FB04F91D023C6102246C
:1015B0003B4603263A6801F500516A4007F5805C16
:1015C00002F47F42CCF80020C1F800E07D68C8F842
:1015D000004053F8242B254082F0070202F0CF028E
:1015E00003F50053CCF80020B0FBF9F00D601E604D
:1015F0000C60BDE8F087A146D8E700BF00000840B6
:10160000002002400030024000000240844641EACF
:10161000000313F0030349D1403A23D30B6803605E
:101620004B6843608B688360CB68C3600B69036160
:101630004B6943618B698361CB69C3610B6A036248
:101640004B6A43628B6A8362CB6AC3620B6B036330
:101650004B6B43638B6B8363CB6BC3634030403115
:10166000403ADBD230320BD30B6803604B684360E7
:101670008B688360CB68C36010301031103AF3D2AE
:101680000C3205D351F8043B40F8043B043AF9D23C
:10169000043208D0D2071CBF11F8013B00F8013B0F
:1016A00001D30B8803806046704700BF082A13D31C
:1016B0008B07B1D010F00303AED0C3F10403D21AEC
:1016C000DB071CBF11F8013B00F8013BA4D331F844
:1016D000023B20F8023B9FE7043AD9D3013A11F8C4
:1016E000013B00F8013BF9D20B7803704B78437053
:1016F0008B7883706046704720F0030110F0030080
:10170000C0F1000051F8043B00F1040C4FEACC0C8E
:101710006FF000021CBF22FA0CF213434FF0010CD1
:101720004CEA0C2C4CEA0C4CA3EB0C0222EA030210
:1017300012EACC1204BF51F8043B0430F4D0C2F1D9
:10174000000102EA0102B2FA82F2C2F11F0200EBCA
:10175000D2007047F8B500BF5FF800F0E501002047
:101760005FF800F0210200205FF800F07D0100200A
:10177000D91000104D100010811000106D110010D4
:10178000B9100010D10F001001110010BD0F001092
:101790001D06001005110010990900101D10001001
:1017A000ED1000109D1000101D05001045050010E3
:0417B0001102001012
:1017B4000000000000000000000000000000000025
:1017C40000F8000000F8000000F8000000F8000035
:1017D40000F800000000000000000000000000000D
:1017E40000000000000000000000000000000000F5
:1017F40000000000000000000000000000F80000ED
:1018040000F8000000F8000000F8000000F80000F4
:1018140000F8000000F8000000F8000000F80000E4
:1018240000000000000000000000000000000000B4
:10183400000000000000000000000000046200003E
:101844000462000004620000D7FE0000046200008D
:10185400D7FE0000D7FE00000000000000000000DA
:101864000000000000000000000000000000000074
:10187400000000000000000004620000D7FE000029
:1018840004620000D7FE0000D7FE0000D7FE00006F
:1018940004620000D7FE0000D7FE0000D7FE00005F
:1018A4000000000000000000000000000000000034
:1018B400000000000000000004620000D7FE0000E9
:1018C4000462000004620000D7FE0000046200000D
:1018D400D7FE0000D7FE0000D7FE0000046200001F
:1018E40000000000000000000000000000000000F4
:1018F400000000000000000004620000D7FE0000A9
:10190400D7FE00000462000004620000D7FE00005D
:10191400D7FE0000D7FE0000D7FE00000000000044
:1019240000000000000000000000000000000000B3
:1019340000000000000000000000000000000000A3
:10194400D7FE0000D7FE0000D7FE0000D7FE00003F
:10195400D7FE0000D7FE0000D7FE0000D7FE00002F
:101964000000000000000000000000000000000073
:1019740000000000000000000000000000F800006B
:1019840000F8000000F8000000F8000000F8000073
:1019940000F8000000F80000000000000000000053
:1019A4000000000000000000000000000000000033
:1019B400000000000000000000F8000000F8000033
:1019C40000F800001F00000000F8000000F800000C
:1019D40000F800001F00000000F8000000000000F4
:1019E40000000000000000000000000000000000F3
:1019F4000000000000F8000000F8000000F80000FB
:101A040000F800001F0000001F0000001F0000007D
:101A14001F0000001F00000000F800001F0000006D
:101A240000000000000000000000000000000000B2
:101A340000000000D7FE0000D7FE000000F8000000
:101A44001F000000E0FF00001F0000001F00000056
:101A54001F000000E0FF00001F00000000F800006D
:101A64000000000000000000000000000000000072
:101A740000000000D7FE0000D7FE00001F00000099
:101A84001F0000001F0000001F0000001F000000D6
:101A94001F0000001F0000001F00000000F80000ED
:101AA4000000000000000000000000000000000032
:101AB40000000000D7FE0000D7FE000000F8000080
:101AC4001F0000001F0000001F0000001F00000096
:101AD4001F0000001F00000000F8000000F80000D4
:101AE40000000000000000000000000000000000F2
:101AF4000000000000000000000000001F000000C3
:101B04001F0000001F0000001F0000001F00000055
:101B14001F0000001F0000001F0000000000000064
:101B240000000000000000000000000000000000B1
:101B340000000000000000000462000004620000D5
:101B440004620000046200000000000000000000C5
:101B540004620000046200000462000004620000E9
:101B64000000000000000000000000000000000071
:101B7400000000000462000004620000046200002F
:101B84000462000004620000000000000000000085
:101B940004620000046200000462000004620000A9
:101BA40004620000000000000000000000000000CB
:101BB4000A2A2A2A2050414E4943202A2A2A0A0066
:101BC4000A000000486172647761726520616C618B
:101BD400726D20256420616C726561647920636C88
:101BE40061696D656400000048617264206173730B
:101BF4006572740052656C6561736500626F6F7421
:101C0400325F77323571303830000000302E3100C9
:101C1400322E322E300000007069636F325F77001D
:101C24005765656B303600004D61792020372032CE
:101C34003032360006005250D3F07542F81B0010C3
:101C440006005250E182887F001C001006005250AA
:101C54003ABCA911101C001006005250ABB36053DB
:101C6400141C001006005250BBFF3CB61C1C001094
:101C740006005250861C0302241C00100600525019
:101C84005422A29D2C1C001005005250DE65F468FD
:081C9400A41E00100D0A00005F
:081C9C0070F9FF7F0100000058
:101CA400381C0010441C0010501C00105C1C001058
:101CB400681C0010741C0010801C00108C1C001088
:101CC4004FF050412DE9F0410027044616461D46C9
:101CD400D1F8008008E0C1E88F7F8CF3108830468B
:101CE400294600F0BDF8E8B92168EFF3108C72B60C
:101CF400D1E8CF2F0123002AFAD1C1E8423F002ABC
:101D0400F6D1BFF35F8F94F904302168002BE2DA37
:101D1400002384F80480C1E88F3F8CF310880120ED
:101D2400BDE8F0810020BDE8F08100BF30B5046853
:101D3400EFF3108C72B6D4E8CFEF0125BEF1000F9B
:101D4400F9D1C4E84E5FBEF1000FF4D1BFF35F8F49
:101D540090F904400568002C10DB0021C5E88F1FB2
:101D64008CF310884FF0504595F90050A54201D1ED
:101D7400084630BDBDE83040FFF7A2BF4FF05042E7
:101D8400126800230271C5E88F3F8CF3108801208C
:101D940030BD00BF0368EFF3108272B6D3E8CFCF33
:101DA4000121BCF1000FF9D1C3E84C1FBCF1000FB5
:101DB400F4D1BFF35F8F4FF0FF0C0023016880F86C
:101DC40004C0C1E88F3F82F3108840BF704700BF52
:101DD400844610466AB3023900B501EB420EDCF8C2
:101DE4000C309B07FBD531F8023F7145CCF8083025
:101DF400F5D1DCF80C30590705D5DCF80830DCF8EF
:101E04000C305907F9D4DCF80C30DA0606D5DCF8C6
:101E14000C30DA06F7D401E0DCF80830DCF80C30DA
:101E24005B07F9D40123CCF820305DF804FBDCF81F
:101E34000830DCF80C305907F9D4DCF80C30DA0639
:101E440006D5DCF80C30DA06F7D401E0DCF808300B
:101E5400DCF80C305B07F9D40123CCF82030704750
:101E64005FF800F0E90B0010100000000000000013
:101E7400000000000000000000000000000000005E
:0C1E8400E0020020000000000000000050
:101E9000D3DEFFFFFE010000FF010000A8E2FFFF0C
:041EA000793512ABD3
:040000051000014D99
:00000001FF
